{
  "contractName": "CrowdFunding",
  "abi": [
    {
      "anonymous": false,
      "inputs": [
        {
          "indexed": false,
          "internalType": "address",
          "name": "contractAddress",
          "type": "address"
        },
        {
          "indexed": false,
          "internalType": "address",
          "name": "projectStarter",
          "type": "address"
        },
        {
          "indexed": false,
          "internalType": "string",
          "name": "projectTitle",
          "type": "string"
        },
        {
          "indexed": false,
          "internalType": "string",
          "name": "projectDesc",
          "type": "string"
        },
        {
          "indexed": false,
          "internalType": "uint256",
          "name": "deadline",
          "type": "uint256"
        },
        {
          "indexed": false,
          "internalType": "uint256",
          "name": "globalAmount",
          "type": "uint256"
        }
      ],
      "name": "ProjectStarted",
      "type": "event"
    },
    {
      "constant": false,
      "inputs": [
        {
          "internalType": "string",
          "name": "title",
          "type": "string"
        },
        {
          "internalType": "string",
          "name": "desc",
          "type": "string"
        },
        {
          "internalType": "uint256",
          "name": "durationInDays",
          "type": "uint256"
        },
        {
          "internalType": "uint256",
          "name": "amountToRaise",
          "type": "uint256"
        }
      ],
      "name": "startProject",
      "outputs": [],
      "payable": false,
      "stateMutability": "nonpayable",
      "type": "function"
    },
    {
      "constant": true,
      "inputs": [],
      "name": "returnAllProjects",
      "outputs": [
        {
          "internalType": "contract Project[]",
          "name": "",
          "type": "address[]"
        }
      ],
      "payable": false,
      "stateMutability": "view",
      "type": "function"
    }
  ],
  "bytecode": "0x608060405234801561001057600080fd5b506118c9806100206000396000f3fe608060405234801561001057600080fd5b50600436106100365760003560e01c806385b6e28e1461003b578063a24a2d161461009a575b600080fd5b61004361017c565b6040518080602001828103825283818151815260200191508051906020019060200280838360005b8381101561008657808201518184015260208101905061006b565b505050509050019250505060405180910390f35b61017a600480360360808110156100b057600080fd5b81019080803590602001906401000000008111156100cd57600080fd5b8201836020820111156100df57600080fd5b8035906020019184600183028401116401000000008311171561010157600080fd5b90919293919293908035906020019064010000000081111561012257600080fd5b82018360208201111561013457600080fd5b8035906020019184600183028401116401000000008311171561015657600080fd5b9091929391929390803590602001909291908035906020019092919050505061020a565b005b6060600080548060200260200160405190810160405280929190818152602001828054801561020057602002820191906000526020600020905b8160009054906101000a900473ffffffffffffffffffffffffffffffffffffffff1673ffffffffffffffffffffffffffffffffffffffff16815260200190600101908083116101b6575b5050505050905090565b6000610234610225620151808561049190919063ffffffff16565b4261051790919063ffffffff16565b905060003388888888868860405161024b9061059f565b808873ffffffffffffffffffffffffffffffffffffffff1673ffffffffffffffffffffffffffffffffffffffff16815260200180602001806020018581526020018481526020018381038352898982818152602001925080828437600081840152601f19601f8201169050808301925050508381038252878782818152602001925080828437600081840152601f19601f8201169050808301925050509950505050505050505050604051809103906000f08015801561030f573d6000803e3d6000fd5b50905060008190806001815401808255809150509060018203906000526020600020016000909192909190916101000a81548173ffffffffffffffffffffffffffffffffffffffff021916908373ffffffffffffffffffffffffffffffffffffffff160217905550507f6218c120ad6d836da0bfe4d4c44c8375356514fce6ae39ecdcd483fad6056e6681338a8a8a8a888a604051808973ffffffffffffffffffffffffffffffffffffffff1673ffffffffffffffffffffffffffffffffffffffff1681526020018873ffffffffffffffffffffffffffffffffffffffff1673ffffffffffffffffffffffffffffffffffffffff16815260200180602001806020018581526020018481526020018381038352898982818152602001925080828437600081840152601f19601f8201169050808301925050508381038252878782818152602001925080828437600081840152601f19601f8201169050808301925050509a505050505050505050505060405180910390a15050505050505050565b6000808314156104a45760009050610511565b60008284029050828482816104b557fe5b041461050c576040517f08c379a00000000000000000000000000000000000000000000000000000000081526004018080602001828103825260218152602001806118746021913960400191505060405180910390fd5b809150505b92915050565b600080828401905083811015610595576040517f08c379a000000000000000000000000000000000000000000000000000000000815260040180806020018281038252601b8152602001807f536166654d6174683a206164646974696f6e206f766572666c6f77000000000081525060200191505060405180910390fd5b8091505092915050565b6112c7806105ad8339019056fe60806040526000600760006101000a81548160ff021916908360028111156200002457fe5b02179055503480156200003657600080fd5b50604051620012c7380380620012c7833981810160405260a08110156200005c57600080fd5b8101908080519060200190929190805160405193929190846401000000008211156200008757600080fd5b838201915060208201858111156200009e57600080fd5b8251866001820283011164010000000082111715620000bc57600080fd5b8083526020830192505050908051906020019080838360005b83811015620000f2578082015181840152602081019050620000d5565b50505050905090810190601f168015620001205780820380516001836020036101000a031916815260200191505b50604052602001805160405193929190846401000000008211156200014457600080fd5b838201915060208201858111156200015b57600080fd5b82518660018202830111640100000000821117156200017957600080fd5b8083526020830192505050908051906020019080838360005b83811015620001af57808201518184015260208101905062000192565b50505050905090810190601f168015620001dd5780820380516001836020036101000a031916815260200191505b506040526020018051906020019092919080519060200190929190505050846000806101000a81548173ffffffffffffffffffffffffffffffffffffffff021916908373ffffffffffffffffffffffffffffffffffffffff1602179055508360059080519060200190620002539291906200028e565b5082600690805190602001906200026c9291906200028e565b508060018190555081600281905550600060048190555050505050506200033d565b828054600181600116156101000203166002900490600052602060002090601f016020900481019282601f10620002d157805160ff191683800117855562000302565b8280016001018555821562000302579182015b8281111562000301578251825591602001919060010190620002e4565b5b50905062000311919062000315565b5090565b6200033a91905b80821115620003365760008160009055506001016200031c565b5090565b90565b610f7a806200034d6000396000f3fe6080604052600436106100c25760003560e01c80635a9b0b891161007f5780638cfbf3b1116100595780638cfbf3b114610494578063b2d5ae44146104bf578063c19d93fb146104ee578063d7bb99ba14610527576100c2565b80635a9b0b89146102945780637284e416146103ed5780638b68085f1461047d576100c2565b806302d05d3f146100c75780630785001c1461011e57806337f944cc1461014957806342e94c90146101745780634a79d50c146101d95780634c4cea5a14610269575b600080fd5b3480156100d357600080fd5b506100dc610531565b604051808273ffffffffffffffffffffffffffffffffffffffff1673ffffffffffffffffffffffffffffffffffffffff16815260200191505060405180910390f35b34801561012a57600080fd5b50610133610556565b6040518082815260200191505060405180910390f35b34801561015557600080fd5b5061015e61055c565b6040518082815260200191505060405180910390f35b34801561018057600080fd5b506101c36004803603602081101561019757600080fd5b81019080803573ffffffffffffffffffffffffffffffffffffffff169060200190929190505050610562565b6040518082815260200191505060405180910390f35b3480156101e557600080fd5b506101ee61057a565b6040518080602001828103825283818151815260200191508051906020019080838360005b8381101561022e578082015181840152602081019050610213565b50505050905090810190601f16801561025b5780820380516001836020036101000a031916815260200191505b509250505060405180910390f35b34801561027557600080fd5b5061027e610618565b6040518082815260200191505060405180910390f35b3480156102a057600080fd5b506102a961061e565b604051808873ffffffffffffffffffffffffffffffffffffffff1673ffffffffffffffffffffffffffffffffffffffff16815260200180602001806020018781526020018660028111156102f957fe5b60ff168152602001858152602001848152602001838103835289818151815260200191508051906020019080838360005b8381101561034557808201518184015260208101905061032a565b50505050905090810190601f1680156103725780820380516001836020036101000a031916815260200191505b50838103825288818151815260200191508051906020019080838360005b838110156103ab578082015181840152602081019050610390565b50505050905090810190601f1680156103d85780820380516001836020036101000a031916815260200191505b50995050505050505050505060405180910390f35b3480156103f957600080fd5b506104026107b1565b6040518080602001828103825283818151815260200191508051906020019080838360005b83811015610442578082015181840152602081019050610427565b50505050905090810190601f16801561046f5780820380516001836020036101000a031916815260200191505b509250505060405180910390f35b34801561048957600080fd5b5061049261084f565b005b3480156104a057600080fd5b506104a96108c5565b6040518082815260200191505060405180910390f35b3480156104cb57600080fd5b506104d46108cb565b604051808215151515815260200191505060405180910390f35b3480156104fa57600080fd5b50610503610a81565b6040518082600281111561051357fe5b60ff16815260200191505060405180910390f35b61052f610a94565b005b6000809054906101000a900473ffffffffffffffffffffffffffffffffffffffff1681565b60015481565b60025481565b60086020528060005260406000206000915090505481565b60058054600181600116156101000203166002900480601f0160208091040260200160405190810160405280929190818152602001828054600181600116156101000203166002900480156106105780601f106105e557610100808354040283529160200191610610565b820191906000526020600020905b8154815290600101906020018083116105f357829003601f168201915b505050505081565b60035481565b60006060806000806000806000809054906101000a900473ffffffffffffffffffffffffffffffffffffffff16965060058054600181600116156101000203166002900480601f0160208091040260200160405190810160405280929190818152602001828054600181600116156101000203166002900480156106e35780601f106106b8576101008083540402835291602001916106e3565b820191906000526020600020905b8154815290600101906020018083116106c657829003601f168201915b5050505050955060068054600181600116156101000203166002900480601f0160208091040260200160405190810160405280929190818152602001828054600181600116156101000203166002900480156107805780601f1061075557610100808354040283529160200191610780565b820191906000526020600020905b81548152906001019060200180831161076357829003601f168201915b505050505094506002549350600760009054906101000a900460ff1692506004549150600154905090919293949596565b60068054600181600116156101000203166002900480601f0160208091040260200160405190810160405280929190818152602001828054600181600116156101000203166002900480156108475780601f1061081c57610100808354040283529160200191610847565b820191906000526020600020905b81548152906001019060200180831161082a57829003601f168201915b505050505081565b6001546004541061088c576002600760006101000a81548160ff0219169083600281111561087957fe5b0217905550610886610c51565b506108bc565b6002544211156108bb576001600760006101000a81548160ff021916908360028111156108b557fe5b02179055505b5b42600381905550565b60045481565b600060018060028111156108db57fe5b600760009054906101000a900460ff1660028111156108f657fe5b1461090057600080fd5b6000600860003373ffffffffffffffffffffffffffffffffffffffff1673ffffffffffffffffffffffffffffffffffffffff168152602001908152602001600020541161094c57600080fd5b6000600860003373ffffffffffffffffffffffffffffffffffffffff1673ffffffffffffffffffffffffffffffffffffffff1681526020019081526020016000205490506000600860003373ffffffffffffffffffffffffffffffffffffffff1673ffffffffffffffffffffffffffffffffffffffff168152602001908152602001600020819055503373ffffffffffffffffffffffffffffffffffffffff166108fc829081150290604051600060405180830381858888f19350505050610a5c5780600860003373ffffffffffffffffffffffffffffffffffffffff1673ffffffffffffffffffffffffffffffffffffffff168152602001908152602001600020819055506000925050610a7d565b610a7181600454610db390919063ffffffff16565b60048190555060019250505b5090565b600760009054906101000a900460ff1681565b6000806002811115610aa257fe5b600760009054906101000a900460ff166002811115610abd57fe5b14610ac757600080fd5b6000809054906101000a900473ffffffffffffffffffffffffffffffffffffffff1673ffffffffffffffffffffffffffffffffffffffff163373ffffffffffffffffffffffffffffffffffffffff161415610b2157600080fd5b610b7334600860003373ffffffffffffffffffffffffffffffffffffffff1673ffffffffffffffffffffffffffffffffffffffff16815260200190815260200160002054610dfd90919063ffffffff16565b600860003373ffffffffffffffffffffffffffffffffffffffff1673ffffffffffffffffffffffffffffffffffffffff16815260200190815260200160002081905550610bcb34600454610dfd90919063ffffffff16565b6004819055507fb01599268f9e5876866cb213fd68ef71bcc2ffbc5981b15fab922cd59f13b1dd3334600454604051808473ffffffffffffffffffffffffffffffffffffffff1673ffffffffffffffffffffffffffffffffffffffff168152602001838152602001828152602001935050505060405180910390a1610c4e61084f565b50565b60006002806002811115610c6157fe5b600760009054906101000a900460ff166002811115610c7c57fe5b14610c8657600080fd5b6000600454905060006004819055506000809054906101000a900473ffffffffffffffffffffffffffffffffffffffff1673ffffffffffffffffffffffffffffffffffffffff166108fc829081150290604051600060405180830381858888f1935050505015610d7e577f2f256415efc8561af8db667cb242964b19be7380f379ccdafaa0e54a6f6b70696000809054906101000a900473ffffffffffffffffffffffffffffffffffffffff16604051808273ffffffffffffffffffffffffffffffffffffffff1673ffffffffffffffffffffffffffffffffffffffff16815260200191505060405180910390a16001925050610daf565b806004819055506002600760006101000a81548160ff02191690836002811115610da457fe5b021790555060009250505b5090565b6000610df583836040518060400160405280601e81526020017f536166654d6174683a207375627472616374696f6e206f766572666c6f770000815250610e85565b905092915050565b600080828401905083811015610e7b576040517f08c379a000000000000000000000000000000000000000000000000000000000815260040180806020018281038252601b8152602001807f536166654d6174683a206164646974696f6e206f766572666c6f77000000000081525060200191505060405180910390fd5b8091505092915050565b6000838311158290610f32576040517f08c379a00000000000000000000000000000000000000000000000000000000081526004018080602001828103825283818151815260200191508051906020019080838360005b83811015610ef7578082015181840152602081019050610edc565b50505050905090810190601f168015610f245780820380516001836020036101000a031916815260200191505b509250505060405180910390fd5b506000838503905080915050939250505056fea265627a7a72315820f4a2db2a73acdf9cbffda63cbf7d86b1f1edc19eaba18d7cfd385d5ac93bd51e64736f6c63430005100032536166654d6174683a206d756c7469706c69636174696f6e206f766572666c6f77a265627a7a7231582089a5249a90c8917a9bdb04218ac4447bec4ac8a7beddde7e39311f00ac50045564736f6c63430005100032",
  "source": "pragma solidity >=0.4.21 <0.7.0;\n\nimport \"@openzeppelin/contracts/math/SafeMath.sol\";\n\ncontract CrowdFunding{\n    using SafeMath for uint256;\n    Project[] private projects;\n\n    event ProjectStarted(\n        address contractAddress,\n        address projectStarter,\n        string projectTitle,\n        string projectDesc,\n        uint256 deadline,\n        uint256 globalAmount\n    );\n\n\n    function startProject(\n        string calldata title,\n        string calldata desc,\n        uint durationInDays,\n        uint amountToRaise\n    ) external {\n        uint raiseUntil = now.add(durationInDays.mul(1 days));\n        Project newProject = new Project(msg.sender, title, desc, raiseUntil, amountToRaise);\n        projects.push(newProject);\n        emit ProjectStarted(\n            address(newProject), \n            msg.sender, \n            title, \n            desc, \n            raiseUntil, \n            amountToRaise\n        );\n    }\n\n    function returnAllProjects() external view returns(Project[] memory){\n        return projects;\n    }\n}\n\ncontract Project{\n    using SafeMath for uint256;\n    enum State { \n        Fundraising, \n        Expired,\n        Successful\n    }\n\n    // State variables\n\n    address payable public creator;\n    uint public amountGoal;\n    uint public raiseBy;\n    uint public completeAt;\n    uint256 public curBalance;\n    string public title;\n    string public description;\n    State public state = State.Fundraising;\n    mapping(address => uint) public contributions;\n\n\n    // Events\n\n    event FundReceived(address contributor, uint amount, uint curTotal);\n    event CreatorPaid(address recipient);\n\n    modifier isState(State _state){\n        require (state == _state);\n        _;\n    }\n\n    modifier isCreator(){\n        require (msg.sender == creator);\n        _;\n    }\n\n    constructor(\n        address payable projectStarter,\n        string memory projectTitle,\n        string memory projectDesc,\n        uint fundRaisingDeadline,\n        uint goalAmount\n    ) public {\n        creator = projectStarter;\n        title = projectTitle;\n        description = projectDesc;\n        amountGoal = goalAmount;\n        raiseBy = fundRaisingDeadline;\n        curBalance = 0;\n    }\n\n    function contribute() external isState(State.Fundraising) payable {\n        require(msg.sender != creator);\n        contributions[msg.sender] = contributions[msg.sender].add(msg.value);\n        curBalance = curBalance.add(msg.value);\n        emit FundReceived(msg.sender, msg.value, curBalance);\n        checkIfFundingCompleted();\n    }\n\n    function checkIfFundingCompleted() public {\n        if(curBalance >= amountGoal){\n            state = State.Successful;\n            payOut();\n        }\n        else if(now > raiseBy){\n            state = State.Expired;\n        }\n\n        completeAt = now;\n    }\n\n    function payOut() internal isState(State.Successful) returns (bool) {\n        uint256 totalRaised = curBalance;\n        curBalance = 0;\n\n        if(creator.send(totalRaised)){\n            emit CreatorPaid(creator);\n            return true;\n        }\n        else{\n            curBalance = totalRaised;\n            state = State.Successful;\n        }\n        return false;\n    }\n\n    function getRefund() public isState(State.Expired) returns (bool) {\n        require(contributions[msg.sender] > 0);\n\n        uint amount = contributions[msg.sender];\n        contributions[msg.sender] = 0;\n\n        if(!msg.sender.send(amount)){\n            contributions[msg.sender] = amount;\n            return false;\n        }\n        else{\n            curBalance = curBalance.sub(amount);\n        }\n\n        return true;\n    }\n\n    function getInfo() public returns (\n        address payable projectStarter,\n        string memory projectTitle,\n        string memory projectDesc,\n        uint256 deadline,\n        State curState,\n        uint256 curAmount,\n        uint256 goalAmount\n    ){\n        projectStarter = creator;\n        projectTitle = title;\n        projectDesc = description;\n        deadline = raiseBy;\n        curState = state;\n        curAmount = curBalance;\n        goalAmount = amountGoal;\n    }\n\n}",
  "sourcePath": "/home/debjit/Projects/Blockchain/Crowdfunding APP/contracts/CrowdFunding.sol",
  "compiler": {
    "name": "solc",
    "version": "0.5.16+commit.9c3226ce.Emscripten.clang"
  },
  "schemaVersion": "3.4.0",
  "updatedAt": "2021-07-24T02:09:28.163Z",
  "networkType": "ethereum",
  "devdoc": {
    "methods": {}
  },
  "userdoc": {
    "methods": {}
  }
}